{
  "contractName": "TodoList",
  "abi": [
    {
      "constant": true,
      "inputs": [],
      "name": "taskCount",
      "outputs": [
        {
          "name": "",
          "type": "uint256"
        }
      ],
      "payable": false,
      "stateMutability": "view",
      "type": "function",
      "signature": "0xb6cb58a5"
    }
  ],
  "bytecode": "0x608060405260008055348015601357600080fd5b506093806100226000396000f3fe6080604052600436106038577c01000000000000000000000000000000000000000000000000000000006000350463b6cb58a58114603d575b600080fd5b348015604857600080fd5b50604f6061565b60408051918252519081900360200190f35b6000548156fea165627a7a72305820fef114749b604c0b31bc1516d16337c409a9a86e7c461522ff3b5b572fce8d650029",
  "source": "// SPDX-License-Identifier: MIT\r\npragma solidity ^0.5.0;\r\n\r\ncontract TodoList {\r\n    // state variables\r\n    uint public taskCount = 0; // task counter variable which shows the numbers of tasks in whole blockchain and smart contract\r\n}",
  "sourcePath": "D:/Polaris/smart-contract-tutorial/learn-solidity-smart-contract/contracts/TodoList.sol",
  "compiler": {
    "name": "solc",
    "version": "0.5.1+commit.c8a2cb62.Emscripten.clang"
  },
  "schemaVersion": "3.0.1",
  "updatedAt": "2022-07-26T12:23:43.424Z",
  "devdoc": {
    "methods": {}
  },
  "userdoc": {
    "methods": {}
  }
}